:0400000088EF37F05E
:106BB2009494030ECA12CA840C0EBD121200939052
:106BC200939274EC36F0F9EC36F0F19E1200356EC9
:106BD2008088809A35C083FF828882988098F3ECFF
:106BE20035F01200000E346E342A180E3464FCEFB5
:106BF20035F0FEEF35F0F5EF35F01200496E819277
:106C02008190498E49502AEC39F048502AEC39F0EB
:106C1200819281901200000E356EF3EC35F0352A28
:106C2200310E356417EF36F019EF36F00EEF36F00D
:106C32001200000E5D6E000E5C6E000E5B6E000EAA
:106C42005A6E000E596E000E586E000E576E1200EC
:106C5200030EF6EC39F0396E39C038F00F0E3816E3
:106C620039380F0B030B0A0DF35038241200020EB1
:106C7200F6EC39F0396E39C038F00F0E3816393863
:106C82000F0B030B0A0DF35038241200010EF6EC21
:106C920039F0396E39C038F00F0E381639380F0B0B
:106CA200070B0A0DF35038241200050EF6EC39F0EA
:106CB200396E39C038F00F0E381639380F0B010B08
:106CC2000A0DF35038241200060EF6EC39F0396E34
:106CD20039C038F00F0E381639380F0B0F0B0A0D6A
:106CE200F35038241200000EF6EC39F0396E39C038
:106CF20038F00F0E381639380F0B070B0A0DF35008
:106D020038241200480E346EE80E356E010E366ECF
:106D1200000E376E42C038F043C039F03A6A3B6A1F
:106D22007CEC3BF03404CB6E120034503602F3CFCD
:106D320038F0F4CF39F034503702F3503926355059
:106D42003602F350392638C034F039C035F012001B
:106D5200C282C2B2AFEF36F0B1EF36F0AAEF36F030
:106D6200C4CF36F0376A3650376E366AC35036268D
:0E6D7200000E372236C034F037C035F0120064
:106D81004232203D2054657374652050574D2020B8
:106D9100004231203D2054657374652052544320D4
:106DA10020004230203D205465737465204C4544D9
:106DB100532000366E8098809A36C083FF82888285
:106DC10098020E3618D8B4E8EF36F0EAEF36F0F252
:106DD100EF36F03604D8A4F0EF36F0F2EF36F0F6E5
:106DE100EF36F00CEC36F0F8EF36F0F3EC35F0124C
:106DF100004C6E4CC03AF03B6A000E3D6E0A0E3CF0
:106E01006E9DEC3AF03AC04AF03BC04BF04A3AF082
:106E11000E4A164CC042F0436A000E456E0A0E44FB
:106E21006E45EC3AF042504A10486E000EFFEC35C8
:106E3100F01200000E346E000E356E352A3528D85A
:106E4100A425EF37F027EF37F01EEF37F0000E35AE
:106E51006E352A3528D8A430EF37F032EF37F029D4
:106E6100EF37F0342A3428D8A439EF37F03BEF3725
:106E7100F01CEF37F01200B00E486E000EFFEC353B
:106E8100F0300E486E010EFFEC35F0290E486E020F
:106E91000EFFEC35F0060E486E030EFFEC35F028C0
:106EA1000E486E040EFFEC35F0100E486E050EFF15
:106EB100EC35F0120E486E060EFFEC35F01200D9DB
:106EC100EC35F0000E436E3C0E426E83EC36F00062
:106ED1000E556E630E556470EF37F072EF37F07434
:106EE100EF37F07FEF37F0555013EC38F0010E1A01
:106EF100EC37F055500A0F556E6AEF37F0C80E1A8D
:106F0100EC37F0000E13EC38F01AEC36F01200C03A
:106F11000EF66E6F0EF76E000EF86E00EE60F0105A
:106F2100EE66F00900F5CFEEFFE550E150FAE181A0
:106F31000EF66E6D0EF76E000EF86E00EE01F0109B
:106F4100EE33F00900F5CFEEFFE550E150FAE10034
:106F5100EE50F00E0EEE6AE806FDE1000EF86E004E
:106F61000165EF39F092989498929A000E956E0E01
:106F71000EC16E0CEC36F00CEC36F00CEC36F00C6D
:106F8100EC36F00CEC36F0380EDAEC36F00CEC3670
:106F9100F00CEC36F0380EDAEC36F00CEC36F0385A
:106FA1000EDAEC36F0380EDAEC36F0060EDAEC36A4
:106FB100F00F0EDAEC36F0010EDAEC36F012004387
:106FC1006F6E76657273616F20414420202020002E
:106FD10020202020202020202020202020202020B0
:106FE10000202020202020202020202020202020C0
:106FF1002000202054333D4232202054343D42337E
:10700100202000202054313D4230202054323D4286
:10701100312020004233203D2054657374652041A6
:107021004E202020003D6E010ECB24346E356A00C7
:107031000E35223DC036F0376A96EC36F034C03E4C
:10704100F035C03FF03EC034F03FC035F0000E37A0
:107051006E190E366EF0EC38F034C03EF035C03F9C
:10706100F0FF0E3E16030E3F163EC03BF03FC03C04
:10707100F0D8903C323B32D8903C323B323B50BE50
:107081006E3EC03BF0030E3B163B38F00BBD1212B7
:1070910000800EDAEC36F0000E556E0F0E5564547A
:1070A100EF38F056EF38F058EF38F064EF38F0A4CD
:1070B1000E5524D96EDA6A000EDA22DF50E8EC357B
:1070C100F0552A4EEF38F0C00EDAEC36F0000E55CE
:1070D1006E0F0E55646FEF38F071EF38F073EF38C3
:1070E100F07FEF38F0930E5524D96EDA6A000EDA8C
:1070F10022DF50E8EC35F0552A69EF38F0120080B4
:107101000EDAEC36F0000E556E0F0E55648BEF382B
:10711100F08DEF38F08FEF38F09BEF38F0820E559D
:1071210024D96EDA6A000EDA22DF50E8EC35F05528
:107131002A85EF38F0C00EDAEC36F0000E556E0FEE
:107141000E5564A6EF38F0A8EF38F0AAEF38F0B684
:10715100EF38F0710E5524D96EDA6A000EDA22DFAB
:1071610050E8EC35F0552AA0EF38F01200000E344B
:107171006E000E356E8182000E546E630E5464C42F
:10718100EF38F0C6EF38F0C8EF38F0CBEF38F054F5
:107191002ABEEF38F0D890343281A0D2EF38F0D443
:1071A100EF38F0D5EF38F0348E8192000E546E63D3
:1071B1000E5464DEEF38F0E0EF38F0E2EF38F0E53E
:1071C100EF38F0542AD8EF38F0352A070E3564EC41
:1071D100EF38F0EEEF38F0BBEF38F034501200002A
:1071E1000E396E000E386E36503710D8B4FBEF38BA
:1071F100F0FDEF38F025EF39F0010E3A6E05EF3969
:10720100F0D890363637363A2A37AE0AEF39F00CD5
:10721100EF39F001EF39F0D890383639363650343D
:107221005C37503558D8A018EF39F01AEF39F01FF4
:10723100EF39F03650345E3750355A3880D89037B0
:107241003236323A2E0CEF39F038C034F039C035CD
:10725100F01200346E000E356E34A032EF39F03486
:10726100EF39F038EF39F08192818039EF39F081CF
:1072710090D89034328192000E546E630E5464445F
:10728100EF39F046EF39F048EF39F04BEF39F05470
:107291002A3EEF39F08182000E546E630E5464541D
:1072A100EF39F056EF39F058EF39F05BEF39F05420
:1072B1002A4EEF39F0352A070E356462EF39F06452
:1072C100EF39F02DEF39F01200B3EC37F0FFEC3A63
:1072D100F06DEF39F0C8EC3EF05750D8B473EF3988
:1072E100F075EF39F06BEF39F087EF39F002EC3CD4
:1072F100F06DEF39F09EEC3DF06DEF39F060EC3759
:10730100F06DEF39F0A3EC3CF06DEF39F057504ED2
:107311006E4F6A4F50000AD8B491EF39F06BEF39D4
:10732100F04E50010AD8B477EF39F0030AD8B47B94
:10733100EF39F0010AD8B47FEF39F0070AD8B483E6
:10734100EF39F0010AD8B467EF39F06BEF39F0008B
:10735100EF00F0000E396E000E3A6E000E3B6E002B
:107361000E3C6E000E386E000E376EE6EF39F000FF
:107371000E396E000E3A6E000E3B6E000E3C6E3CF6
:10738100503B100BE1700E395C170E3A58D8A0CC67
:10739100EF39F0CEEF39F0D0EF39F0E4EF39F00109
:1073A1000E3926000E3A223B223C223C503B100B68
:1073B100E1700E395C170E3A58D8A0E2EF39F0E4CB
:1073C100EF39F0D0EF39F0374A382A3450375C388A
:1073D10050800A366E3550800A3658D8A0F3EF39FE
:1073E100F0F5EF39F0B8EF39F01200376E81928184
:1073F10090D8903736810E371237502AEC39F093F6
:1074010080000E546E630E546409EF3AF00BEF3AAC
:10741100F00DEF3AF010EF3AF0542A03EF3AF00092
:107421000E546E630E546418EF3AF01AEF3AF01CE2
:10743100EF3AF01FEF3AF0542A12EF3AF0000E54EF
:107441006E630E546427EF3AF029EF3AF02BEF3ACE
:10745100F02EEF3AF0542A21EF3AF0000E546E6309
:107461000E546436EF3AF038EF3AF03AEF3AF03D25
:10747100EF3AF0542A30EF3AF0B7EC38F0366E813B
:10748100928190939036501200000E476E43BE4E8B
:10749100EF3AF04CEF3AF054EF3AF0426C431ED819
:1074A100B0432A010E476E45BE5BEF3AF059EF3A01
:1074B100F05FEF3AF0446C451ED8B0452A44504580
:1074C10010D8B466EF3AF068EF3AF08CEF3AF00179
:1074D1000E466E70EF3AF0D89044364536462A454E
:1074E100AE75EF3AF077EF3AF06CEF3AF044504274
:1074F1005C45504358D8A080EF3AF082EF3AF086CD
:10750100EF3AF04450425E4550435AD890453244D8
:1075110032462E77EF3AF04750D8B492EF3AF094D2
:10752100EF3AF098EF3AF0426C431ED8B0432A424A
:10753100C042F043C043F01200000E3F6E3DBEA6B4
:10754100EF3AF0A4EF3AF0ACEF3AF03C6C3D1ED8C4
:10755100B03D2A010E3F6E3BBEB3EF3AF0B1EF3AB8
:10756100F0B9EF3AF03A6C3B1ED8B03B2A010E3F1E
:107571001A000E416E000E406E3C503D10D8B4C44E
:10758100EF3AF0C6EF3AF0EEEF3AF0010E3E6ECE72
:10759100EF3AF0D8903C363D363E2A3DAED3EF3A35
:1075A100F0D5EF3AF0CAEF3AF0D890403641363C88
:1075B100503A5C3D503B58D8A0E1EF3AF0E3EF3A46
:1075C100F0E8EF3AF03C503A5E3D503B5A4080D8EB
:1075D100903D323C323E2ED5EF3AF03F50D8B4F4D4
:1075E100EF3AF0F6EF3AF0FAEF3AF0406C411ED87C
:1075F100B0412A40C03AF041C03BF01200800EDA9F
:10760100EC36F0000E556E0F0E55640AEF3BF00C90
:10761100EF3BF00EEF3BF01AEF3BF0230E5524D970
:107621006EDA6A000EDA22DF50E8EC35F0552A04F2
:10763100EF3BF0C00EDAEC36F0000E556E0F0E5532
:107641006425EF3BF027EF3BF029EF3BF035EF3BB3
:10765100F0120E5524D96EDA6A000EDA22DF50E8F4
:10766100EC35F0552A1FEF3BF0000E356E3C0E3421
:107671006EAAEC39F0800EDAEC36F0000E556E0F82
:107681000E556446EF3BF048EF3BF04AEF3BF056B6
:10769100EF3BF0010E5524D96EDA6A000EDA22DFD3
:1076A10050E8EC35F0552A40EF3BF0C00EDAEC36ED
:1076B100F0000E556E0F0E556461EF3BF063EF3B2A
:1076C100F065EF3BF071EF3BF0B50E5524D96EDA62
:1076D1006A000EDA22DF50E8EC35F0552A5BEF3B09
:1076E100F0000E356E3C0E346EAAEC39F049EC38E0
:1076F100F01AEC36F01200000E3D6E3BBE85EF3BFA
:10770100F083EF3BF08FEF3BF03B1E3A1E391E3802
:107711006C000E39223A223B22010E3D6E37BE9695
:10772100EF3BF094EF3BF0A0EF3BF0371E361E35F8
:107731001E346C000E352236223722010E3D1A000E
:107741000E3E6E000E3F6E000E406E000E416E3812
:107751005039103A103B10D8B4B1EF3BF0B3EF3BC6
:10776100F0E9EF3BF0010E3C6EBDEF3BF0D89038F5
:107771003639363A363B363C2A3BAEC2EF3BF0C493
:10778100EF3BF0B7EF3BF0D8903E363F3640364105
:10779100363850345C395035583A5036583B5037AA
:1077A10058D8A0D6EF3BF0D8EF3BF0E1EF3BF038F3
:1077B10050345E3950355A3A50365A3B50375A3E5A
:1077C10080D8903B323A32393238323C2EC4EF3BCA
:1077D100F03D50D8B4EFEF3BF0F1EF3BF0F9EF3B68
:1077E100F0411E401E3F1E3E6C000E3F22402241D2
:1077F100223EC034F03FC035F040C036F041C037C2
:10780100F01200F70E926EEF0E936EFC0E946E1056
:107811000E816E640E1AEC37F0000E816E080E8038
:107821006E640E1AEC37F0000E806E020E826E64EA
:107831000E1AEC37F0000E826E010E826E640E1A83
:10784100EC37F0000E826E640E1AEC37F0010E82F6
:107851006E030E826E000E356E0A0E346EAAEC397E
:10786100F0020E826E080E806E000E356E0A0E3426
:107871006EAAEC39F0000E826E100E816E000E358C
:107881006E0A0E346EAAEC39F0000E806E000E35D1
:107891006E0A0E346EAAEC39F0080E806E000E35B9
:1078A1006E0A0E346EAAEC39F0000E816E020E8261
:1078B1006E000E356E0A0E346EAAEC39F0000E80A1
:1078C1006E030E826E000E356E0A0E346EAAEC390E
:1078D100F0010E826E000E356E0A0E346EAAEC397E
:1078E100F0000E826E000E356E0A0E346EAAEC396F
:1078F100F0000E556E020E556481EF3CF083EF3CB3
:10790100F085EF3CF0A0EF3CF0030E826E080E8094
:107911006E100E816E000E356E0A0E346EAAEC39B1
:10792100F0000E826E000E806E000E816E000E352C
:107931006E0A0E346EAAEC39F0552A7BEF3CF01A30
:10794100EC36F01200010EC26E090EC16EAA0EC015
:107951006EF70E926EEF0E936EFC0E946E000E3A61
:107961006E000E3B6E000E3C6E000E3D6E000E3939
:107971006E190E386E000E3A6E000E3B6E000E3C14
:107981006E000E3D6E3D503C100BE1700E3A5C17DF
:107991000E3B58D8A0CFEF3CF0D1EF3CF0D3EF3CF9
:1079A100F085EF3DF0A9EC36F034C050F035C05110
:1079B100F051BEE7EF3CF0515007E1850E505CD825
:1079C100B0E5EF3CF0E7EF3CF0EDEF3CF0000E816D
:1079D1006E000E806E000E826E51BEF9EF3CF051CA
:1079E1005009E1860E505CD8A0F9EF3CF0FBEF3C6A
:1079F100F011EF3DF051BE09EF3DF0290E505C0151
:107A01000E5158D8B007EF3DF009EF3DF011EF3DB1
:107A1100F0100E816E000E806E000E826E7DEF3DC5
:107A2100F051BE1DEF3DF02A0E505C010E5158D8A9
:107A3100A01DEF3DF01FEF3DF035EF3DF051BE2DA4
:107A4100EF3DF0CD0E505C010E5158D8B02BEF3DFB
:107A5100F02DEF3DF035EF3DF0100E816E080E80F8
:107A61006E000E826E7DEF3DF051BE41EF3DF0CED6
:107A71000E505C010E5158D8A041EF3DF043EF3D4F
:107A8100F059EF3DF051BE51EF3DF0480E505C0210
:107A91000E5158D8B04FEF3DF051EF3DF059EF3D49
:107AA100F0100E816E080E806E020E826E7DEF3D2B
:107AB100F051BE65EF3DF0490E505C020E5158D8B1
:107AC100A065EF3DF067EF3DF07DEF3DF051BE75F4
:107AD100EF3DF0850E505C020E5158D8B073EF3D6A
:107AE100F075EF3DF07DEF3DF0100E816E080E80D8
:107AF1006E030E826E7DEF3DF0010E3A26000E3BC5
:107B0100223C223D22C3EF3CF03806D8A039063989
:107B1100BE95EF3DF0395006E13804D8B093EF3D02
:107B2100F095EF3DF0BBEF3CF0000E816E000E8052
:107B31006E000E826E1AEC36F01200B3EC37F0E0F4
:107B4100EC35F03CEC37F080EC38F0C00EDAEC3676
:107B5100F0000E3D6E0A0E3C6E29EC36F04D6E4D76
:107B6100503A6E3B6A9DEC3AF03AC042F03BC0435A
:107B7100F0000E456E0A0E446E45EC3AF04250306C
:107B81000FE8EC35F029EC36F04D6E4D50426E4366
:107B91006A000E456E0A0E446E45EC3AF0425030D2
:107BA1000FE8EC35F02F0EE8EC35F0000E3D6E0AD3
:107BB1000E3C6E56EC36F04D6E4D503A6E3B6A9D62
:107BC100EC3AF03AC042F03BC043F0000E456E0A79
:107BD1000E446E45EC3AF04250300FE8EC35F05669
:107BE100EC36F04D6E4D50426E436A000E456E0A02
:107BF1000E446E45EC3AF04250300FE8EC35F02F70
:107C01000EE8EC35F0000E3D6E0A0E3C6E65EC366A
:107C1100F04D6E4D503A6E3B6A9DEC3AF03AC042DF
:107C2100F03BC043F0000E456E0A0E446E45EC3A3F
:107C3100F04250300FE8EC35F065EC36F04D6E4D0A
:107C410050426E436A000E456E0A0E446E45EC3A90
:107C5100F04250300FE8EC35F0000E556E630E55D2
:107C61006435EF3EF037EF3EF039EF3EF0C3EF3EC3
:107C7100F0800EDAEC36F0000E3D6E0A0E3C6E38E6
:107C8100EC36F04D6E4D503A6E3B6A9DEC3AF03A4F
:107C9100C042F03BC043F0000E456E0A0E446E45F3
:107CA100EC3AF04250300FE8EC35F038EC36F04D5C
:107CB1006E4D50426E436A000E456E0A0E446E458B
:107CC100EC3AF04250300FE8EC35F03A0EE8EC3582
:107CD100F0000E3D6E0A0E3C6E47EC36F04D6E4DD7
:107CE100503A6E3B6A9DEC3AF03AC042F03BC043D9
:107CF100F0000E456E0A0E446E45EC3AF0425030EB
:107D01000FE8EC35F047EC36F04D6E4D50426E43C6
:107D11006A000E456E0A0E446E45EC3AF042503050
:107D21000FE8EC35F03A0EE8EC35F0000E3D6E0A46
:107D31000E3C6E74EC36F04D6E4D503A6E3B6A9DC2
:107D4100EC3AF03AC042F03BC043F0000E456E0AF7
:107D51000E446E45EC3AF04250300FE8EC35F074C9
:107D6100EC36F04D6E4D50426E436A000E456E0A80
:107D71000E446E45EC3AF04250300FE8EC35F055C8
:107D81002A2FEF3EF01AEC36F049EC38F01200964B
:107D910068000E816E150EC26E090EC16EAA0EC06C
:107DA1006EA9EC36F034C052F035C053F053BEE347
:107DB100EF3EF0C80E525C020E5358D8A0E3EF3EDE
:107DC100F0E5EF3EF0F7EF3EF053BEF3EF3EF00388
:107DD1000E525C030E5358D8B0F1EF3EF0F3EF3E74
:107DE100F0F7EF3EF0010E596E69EF3FF053BE031D
:107DF100EF3FF0E60E525C010E5358D8A003EF3F5F
:107E0100F005EF3FF017EF3FF053BE13EF3FF017D0
:107E11000E525C020E5358D8B011EF3FF013EF3FF2
:107E2100F017EF3FF0010E5A6E69EF3FF053BE239A
:107E3100EF3FF02D0E525C010E5358D8A023EF3FB7
:107E4100F025EF3FF037EF3FF053BE33EF3FF068DF
:107E51000E525C010E5358D8B031EF3FF033EF3F73
:107E6100F037EF3FF0010E5B6E69EF3FF053BE4319
:107E7100EF3FF0535009E1870E525CD8A043EF3F2A
:107E8100F045EF3FF057EF3FF053BE53EF3FF05354
:107E91005007E1C20E525CD8B051EF3FF053EF3FB3
:107EA100F057EF3FF0010E5C6E69EF3FF053BE6596
:107EB100EF3FF0535007E11E0E525CD8B063EF3F25
:107EC100F065EF3FF069EF3FF0010E5D6E69EF3F46
:107ED100F053BE75EF3FF0535009E11F0E525CD8CD
:107EE100A075EF3FF077EF3FF087EF3FF05D50D89F
:107EF100B47DEF3FF07FEF3FF087EF3FF0000E5D85
:107F01006E010E566E010E576E010E586E53BE93E2
:107F1100EF3FF0535009E1C30E525CD8A093EF3FFD
:107F2100F095EF3FF0A5EF3FF05C50D8B49BEF3FE9
:107F3100F09DEF3FF0A5EF3FF0000E5C6E020E5694
:107F41006E020E576E010E586E53BEB1EF3FF069CF
:107F51000E525C010E5358D8A0B1EF3FF0B3EF3F82
:107F6100F0C3EF3FF05B50D8B4B9EF3FF0BBEF3F48
:107F7100F0C3EF3FF0000E5B6E030E566E030E571B
:107F81006E010E586E53BECFEF3FF0180E525C02D9
:107F91000E5358D8A0CFEF3FF0D1EF3FF0E1EF3FC4
:107FA100F05A50D8B4D7EF3FF0D9EF3FF0E1EF3FAF
:107FB100F0000E5A6E040E566E040E576E010E58E6
:107FC1006E53BEEDEF3FF0040E525C030E5358D8D2
:107FD100A0EDEF3FF0EFEF3FF0FFEF3FF05950D84A
:107FE100B4F5EF3FF0F7EF3FF0FFEF3FF0000E5930
:0F7FF1006E050E566E050E576E010E586E12007D
:020000040020DA
:08000000FFFFFFFFFFFFFFFF00
:020000040030CA
:0E00000000051F1FFF8385FF0FC00FE00F409C
:00000001FF
